{
  "contractName": "parinTokenSale",
  "abi": [
    {
      "constant": true,
      "inputs": [],
      "name": "tokensSold",
      "outputs": [
        {
          "name": "",
          "type": "uint256"
        }
      ],
      "payable": false,
      "stateMutability": "view",
      "type": "function"
    },
    {
      "constant": true,
      "inputs": [],
      "name": "tokenContract",
      "outputs": [
        {
          "name": "",
          "type": "address"
        }
      ],
      "payable": false,
      "stateMutability": "view",
      "type": "function"
    },
    {
      "constant": true,
      "inputs": [],
      "name": "tokenPrice",
      "outputs": [
        {
          "name": "",
          "type": "uint256"
        }
      ],
      "payable": false,
      "stateMutability": "view",
      "type": "function"
    },
    {
      "constant": true,
      "inputs": [],
      "name": "admin",
      "outputs": [
        {
          "name": "",
          "type": "address"
        }
      ],
      "payable": false,
      "stateMutability": "view",
      "type": "function"
    },
    {
      "inputs": [
        {
          "name": "_tokenContract",
          "type": "address"
        },
        {
          "name": "_tokenPrice",
          "type": "uint256"
        }
      ],
      "payable": false,
      "stateMutability": "nonpayable",
      "type": "constructor"
    },
    {
      "anonymous": false,
      "inputs": [
        {
          "indexed": true,
          "name": "_buyer",
          "type": "address"
        },
        {
          "indexed": false,
          "name": "_amount",
          "type": "uint256"
        }
      ],
      "name": "Sell",
      "type": "event"
    },
    {
      "constant": false,
      "inputs": [
        {
          "name": "_numberOfTokens",
          "type": "uint256"
        }
      ],
      "name": "buyTokens",
      "outputs": [],
      "payable": true,
      "stateMutability": "payable",
      "type": "function"
    },
    {
      "constant": false,
      "inputs": [],
      "name": "endSale",
      "outputs": [],
      "payable": false,
      "stateMutability": "nonpayable",
      "type": "function"
    }
  ],
  "bytecode": "0x608060405234801561001057600080fd5b506040516040806108628339810180604052810190808051906020019092919080519060200190929190505050336000806101000a81548173ffffffffffffffffffffffffffffffffffffffff021916908373ffffffffffffffffffffffffffffffffffffffff16021790555081600160006101000a81548173ffffffffffffffffffffffffffffffffffffffff021916908373ffffffffffffffffffffffffffffffffffffffff16021790555080600281905550505061078c806100d66000396000f300608060405260043610610078576000357c0100000000000000000000000000000000000000000000000000000000900463ffffffff1680633610724e1461007d578063380d831b1461009d578063518ab2a8146100b457806355a373d6146100df5780637ff9b59614610136578063f851a44014610161575b600080fd5b61009b600480360381019080803590602001909291905050506101b8565b005b3480156100a957600080fd5b506100b2610443565b005b3480156100c057600080fd5b506100c96106cb565b6040518082815260200191505060405180910390f35b3480156100eb57600080fd5b506100f46106d1565b604051808273ffffffffffffffffffffffffffffffffffffffff1673ffffffffffffffffffffffffffffffffffffffff16815260200191505060405180910390f35b34801561014257600080fd5b5061014b6106f7565b6040518082815260200191505060405180910390f35b34801561016d57600080fd5b506101766106fd565b604051808273ffffffffffffffffffffffffffffffffffffffff1673ffffffffffffffffffffffffffffffffffffffff16815260200191505060405180910390f35b6101c481600254610722565b341415156101d157600080fd5b80600160009054906101000a900473ffffffffffffffffffffffffffffffffffffffff1673ffffffffffffffffffffffffffffffffffffffff166370a08231306040518263ffffffff167c0100000000000000000000000000000000000000000000000000000000028152600401808273ffffffffffffffffffffffffffffffffffffffff1673ffffffffffffffffffffffffffffffffffffffff168152602001915050602060405180830381600087803b15801561028f57600080fd5b505af11580156102a3573d6000803e3d6000fd5b505050506040513d60208110156102b957600080fd5b8101908080519060200190929190505050101515156102d757600080fd5b600160009054906101000a900473ffffffffffffffffffffffffffffffffffffffff1673ffffffffffffffffffffffffffffffffffffffff1663a9059cbb33836040518363ffffffff167c0100000000000000000000000000000000000000000000000000000000028152600401808373ffffffffffffffffffffffffffffffffffffffff1673ffffffffffffffffffffffffffffffffffffffff16815260200182815260200192505050602060405180830381600087803b15801561039c57600080fd5b505af11580156103b0573d6000803e3d6000fd5b505050506040513d60208110156103c657600080fd5b810190808051906020019092919050505015156103e257600080fd5b806003600082825401925050819055503373ffffffffffffffffffffffffffffffffffffffff167f5e5e995ce3133561afceaa51a9a154d5db228cd7525d34df5185582c18d3df09826040518082815260200191505060405180910390a250565b6000809054906101000a900473ffffffffffffffffffffffffffffffffffffffff1673ffffffffffffffffffffffffffffffffffffffff163373ffffffffffffffffffffffffffffffffffffffff1614151561049e57600080fd5b600160009054906101000a900473ffffffffffffffffffffffffffffffffffffffff1673ffffffffffffffffffffffffffffffffffffffff1663a9059cbb6000809054906101000a900473ffffffffffffffffffffffffffffffffffffffff16600160009054906101000a900473ffffffffffffffffffffffffffffffffffffffff1673ffffffffffffffffffffffffffffffffffffffff166370a08231306040518263ffffffff167c0100000000000000000000000000000000000000000000000000000000028152600401808273ffffffffffffffffffffffffffffffffffffffff1673ffffffffffffffffffffffffffffffffffffffff168152602001915050602060405180830381600087803b1580156105bb57600080fd5b505af11580156105cf573d6000803e3d6000fd5b505050506040513d60208110156105e557600080fd5b81019080805190602001909291905050506040518363ffffffff167c0100000000000000000000000000000000000000000000000000000000028152600401808373ffffffffffffffffffffffffffffffffffffffff1673ffffffffffffffffffffffffffffffffffffffff16815260200182815260200192505050602060405180830381600087803b15801561067b57600080fd5b505af115801561068f573d6000803e3d6000fd5b505050506040513d60208110156106a557600080fd5b810190808051906020019092919050505015156106c157600080fd5b6000600281905550565b60035481565b600160009054906101000a900473ffffffffffffffffffffffffffffffffffffffff1681565b60025481565b6000809054906101000a900473ffffffffffffffffffffffffffffffffffffffff1681565b60008060008414156107375760009150610759565b828402905082848281151561074857fe5b0414151561075557600080fd5b8091505b50929150505600a165627a7a72305820f3e97c7060d2335dea23520be21c442203f6d3f134ff51c173036991b8a337910029",
  "source": "pragma solidity ^0.4.26;\r\n\r\nimport \"./parin.sol\";\r\n\r\ncontract parinTokenSale {\r\n    address public admin;\r\n    parin public tokenContract;\r\n    uint256 public tokenPrice;\r\n    uint256 public tokensSold;\r\n\r\n    event Sell(address indexed _buyer, uint256 _amount);\r\n\r\n    constructor(parin _tokenContract, uint256 _tokenPrice) public {\r\n        admin = msg.sender;\r\n        tokenContract = _tokenContract;\r\n        tokenPrice = _tokenPrice;\r\n    }\r\n\r\n    function multiply(uint256 x, uint256 y) internal pure returns (uint256) {\r\n        if (x == 0) {\r\n            return 0;\r\n        }\r\n        uint256 z = x * y;\r\n        require(z / x == y);\r\n        return z;\r\n    }\r\n\r\n    function buyTokens(uint256 _numberOfTokens) public payable {\r\n        require(msg.value == multiply(_numberOfTokens, tokenPrice));\r\n        require(tokenContract.balanceOf(address(this)) >= _numberOfTokens);\r\n        require(tokenContract.transfer(msg.sender, _numberOfTokens));\r\n\r\n        tokensSold += _numberOfTokens;\r\n\r\n        emit Sell(msg.sender, _numberOfTokens);\r\n    }\r\n\r\n    function endSale() public {\r\n        require(msg.sender == admin);\r\n    require(tokenContract.transfer(admin, tokenContract.balanceOf(this)));\r\n\r\n    tokenPrice = 0;\r\n\r\n        \r\n    }\r\n}\r\n",
  "sourcePath": "C:\\Users\\patel\\OneDrive\\Desktop\\SEM-6\\BA\\23it088\\contracts\\parinTokenSale.sol",
  "compiler": {
    "name": "solc",
    "version": "0.4.26+commit.4563c3fc.Emscripten.clang"
  },
  "schemaVersion": "3.4.16",
  "updatedAt": "2026-02-06T09:06:20.046Z",
  "networkType": "ethereum",
  "devdoc": {
    "methods": {}
  },
  "userdoc": {
    "methods": {}
  }
}